:100000000C9434000C9448000C9446000C94460068
:100010000C9446000C9446000C9446000C94460048
:100020000C9446000C9446000C9446000C94460038
:100030000C9446000C9446000C9446000C94460028
:100040000C9446000C9446000C9446000C94460018
:100050000C9446000C9446000C9446000C94460008
:100060000C9446000C94460011241FBECFEFD8E03C
:10007000DEBFCDBF21E0A0E0B1E001C01D92A13004
:10008000B207E1F70E9488000C94E3000C94000092
:100090001F920F920FB60F9211248F9381E08093DD
:1000A00000018F910F900FBE0F901F90189585B192
:1000B000826085B985B1837F85B92FEF83E294EFA4
:1000C000215080409040E1F700C00000089585B1C4
:1000D000846085B985B1857F85B92FEF8FE493EC76
:1000E000215080409040E1F700C00000089585B1A4
:1000F000886085B985B1897F85B92AEA36EE86E9B7
:1001000091E02150304080409040D9F700000895A0
:1001100084B18E6084B927B181E090E0AC0102C067
:10012000440F551F2A95E2F79A0147B102C0880F84
:10013000991F4A95E2F7822B932B97B1892B87B9A8
:100140008AB18B7F8AB98BB184608BB98DB38160A2
:100150008DBBE9E6F0E080818360808378940E9423
:1001600057000E9467000E94770080910001882359
:10017000B1F385B1886085B985B18B7F85B985B1CB
:100180008D7F85B988B1806188B988B18F7D88B944
:100190005FEF83E294EF515080409040E1F700C060
:1001A000000088B18F7E88B988B1806288B92FEF4E
:1001B00043ED50E3215040405040E1F700C00000C3
:0A01C00010920001CCCFF894FFCF9D
:00000001FF
