S0130000496E746572727570745F312E73726563B4
S11300000C9434000C945C000C9446000C94460050
S11300100C9446000C9446000C9446000C94460044
S11300200C9446000C9446000C9446000C94460034
S11300300C9446000C9446000C9446000C94460024
S11300400C9446000C9446000C9446000C94460014
S11300500C9446000C9446000C9446000C94460004
S11300600C9446000C94460011241FBECFEFD8E038
S1130070DEBFCDBF21E0A0E0B1E001C01D92A13000
S1130080B207E1F70E946B000C94B5000C940000D9
S113009040E050E00DC01092850010928400209141
S11300A084003091850029303D43C8F34F5F5F4F92
S11300B04817590780F308951F920F920FB60F92B5
S11300C011248F9381E0809300018F910F900FBED4
S11300D00F901F90189584B1876084B9E1E8F0E02F
S11300E08081856080838DB381608DBBE9E6F0E01B
S11300F0808183608083789481E085B98AE090E090
S11301000E94480080910001882349F081E085B96C
S113011085E090E00E94480010920001EDCF82E05B
S113012085B983E090E00E94480080910001882313
S113013049F081E085B985E090E00E944800109282
S11301400001DACF84E085B98AE090E00E9448009B
S113015080910001882381F281E085B985E090E0F7
S11101600E94480010920001C7CFF894FFCF10
S9030000FC
