S00D000050574D5F312E7372656393
S11300000C9434000C9446000C9446000C94460066
S11300100C9446000C9446000C9446000C94460044
S11300200C9446000C9446000C9446000C94460034
S11300300C9446000C9446000C9446000C94460024
S11300400C9446000C9446000C9446000C94460014
S11300500C9446000C9446000C9446000C94460004
S11300600C9446000C94460011241FBECFEFD8E038
S1130070DEBFCDBF21E0A0E0B1E001C01D92A13000
S1130080B207E1F70E9460000C94A8000C940000F1
S113009080910001811103C080E487BD08958130FF
S11300A019F480E887BD0895823019F480EC87BD87
S11300B00895833019F48FEF87BD089517BC089510
S11300C08AB180648AB98AB18B7F8AB98BB1846022
S11300D08BB983E884BD83E085BD0E9448004A99BA
S11300E0FECF8091000190E0019665E070E00E94EF
S11300F08000809300010E9448004A9BFECFEFCF0E
S113010097FB072E16F4009407D077FD09D00E94C0
S1130110940007FC05D03EF4909581959F4F089577
S1130120709561957F4F0895AA1BBB1B51E107C0D1
S1130130AA1FBB1FA617B70710F0A61BB70B881F73
S1130140991F5A95A9F780959095BC01CD01089502
S1070150F894FFCF4D
S9030000FC
