S0120000546F67676C655F4C45442E737265637C
S11300000C9434000C943E000C943E000C943E007E
S11300100C943E000C943E000C943E000C943E0064
S11300200C943E000C943E000C943E000C943E0054
S11300300C943E000C943E000C943E000C943E0044
S11300400C943E000C943E000C943E000C943E0034
S11300500C943E000C943E000C943E000C943E0024
S11300600C943E000C943E0011241FBECFEFD8E048
S1130070DEBFCDBF0E9440000C9453000C940000DE
S11300808AB180628AB98BB180628BB92FEF83E227
S113009094EF215080409040E1F700C000008BB104
S10D00A08F7D8BB9F0CFF894FFCFE9
S9030000FC
