S014000062696E6172795F636F756E742E7372656303
S11300000C9434000C9446000C9446000C94460066
S11300100C9446000C9446000C9446000C94460044
S11300200C9446000C9446000C9446000C94460034
S11300300C9446000C9446000C9446000C94460024
S11300400C9446000C9446000C9446000C94460014
S11300500C9446000C9446000C9446000C94460004
S11300600C9446000C94460011241FBECFEFD8E038
S1130070DEBFCDBF21E0A0E0B1E001C01D92A13000
S1130080B207E1F70E944E000C9477000C94000034
S113009095B1907F8F70892B85B908958FE084B9CD
S11300A08AB18B7F8AB98BB184608BB9809100014E
S11300B00E9448004A99FECF2FEF80E792E021503A
S11300C080409040E1F700C000004A9BFECF809141
S11300D000018F5F8093000180910001803110F056
S11300E010920001809100010E944800E3CFF8942F
S10500F0FFCF3C
S9030000FC
