:100000000C9434000C943E000C943E000C943E0082
:100010000C943E000C943E000C943E000C943E0068
:100020000C943E000C943E000C943E000C943E0058
:100030000C943E000C943E000C943E000C943E0048
:100040000C943E000C943E000C943E000C943E0038
:100050000C943E000C943E000C943E000C943E0028
:100060000C943E000C943E0011241FBECFEFD8E04C
:10007000DEBFCDBF0E947F000C949C000C9400005A
:1000800080E480937C0087E880937A000895ECE711
:10009000F0E08081807F8083EAE7F0E08081806407
:1000A000808380917A0086FDFCCF809178009091CA
:1000B0007900089584B1826084B982E880938000D9
:1000C0008AE1809381008FE19EE490938700809382
:1000D0008600089528EE33E0AC01429FC001439FA3
:1000E000900D529F900D11246FEF73E00E948800D5
:1000F00068517C4F709389006093880008950E9436
:1001000040000E945A000E9447000E946A00FBCFF4
:10011000AA1BBB1B51E107C0AA1FBB1FA617B7072D
:1001200010F0A61BB70B881F991F5A95A9F7809549
:0C0130009095BC01CD010895F894FFCF1C
:00000001FF
