S0160000436F6F6C696E675F73797374656D2E737265633F
S11300000C9434000C9446000C9446000C94460066
S11300100C9446000C9446000C9446000C94460044
S11300200C9446000C9446000C9446000C94460034
S11300300C9446000C9446000C9446000C94460024
S11300400C9446000C9446000C9446000C94460014
S11300500C9446000C9446000C9446000C94460004
S11300600C9446000C94460011241FBECFEFD8E038
S1130070DEBFCDBF21E0A0E0B1E001C01D92A13000
S1130080B207E1F70E9470000C949F000C940000EA
S113009080E480937C0087E880937A000895ECE7FD
S11300A0F0E08081807F8083EAE7F0E080818064F3
S11300B0808380917A0086FDFCCF809178009091B6
S11300C079000895883C910528F08039914020F406
S11300D080E8089580E408958FEF089587BD08951A
S11300E08AB180648AB98AB18B7F8AB98BB1846002
S11300F08BB981E884BD82E085BD0E9448004A999D
S11301000FC02FEF83EC99E0215080409040E1F73D
S113011000C000009091000181E0892780930001D4
S113012080910001882339F00E944F000E946200F0
S11301300E946E00E4CF80E00E946E00E0CFF8944D
S1050140FFCFEB
S9030000FC
