S00E000054696D6572732E73726563A2
S11300000C9434000C943E000C943E000C943E007E
S11300100C943E000C943E000C943E000C943E0064
S11300200C943E000C943E000C943E000C943E0054
S11300300C943E000C943E000C943E000C943E0044
S11300400C943E000C943E000C943E000C943E0034
S11300500C943E000C943E000C943E000C943E0024
S11300600C943E000C943E0011241FBECFEFD8E048
S1130070DEBFCDBF0E9454000C946F000C940000AE
S113008040E050E00DC01092850010928400209151
S113009084003091850029303D43C8F34F5F5F4FA2
S11300A04817590780F3089584B1876084B9E1E85B
S11300B0F0E080818560808381E085B98AE090E00A
S11300C00E94400082E085B983E090E00E944000F5
S11300D084E085B98AE090E00E944000EDCFF89476
S10500E0FFCF4C
S9030000FC
