S01E000044435F6D6F746F725F73706565645F636F6E74726F6C2E737265631F
S11300000C9434000C943E000C943E000C943E007E
S11300100C943E000C943E000C943E000C943E0064
S11300200C943E000C943E000C943E000C943E0054
S11300300C943E000C943E000C943E000C943E0044
S11300400C943E000C943E000C943E000C943E0034
S11300500C943E000C943E000C943E000C943E0024
S11300600C943E000C943E0011241FBECFEFD8E048
S1130070DEBFCDBF0E9469000C9474000C94000094
S113008080E480937C0087E880937A000895ECE70D
S1130090F0E08081807F8083EAE7F0E08081806403
S11300A0808380917A0086FDFCCF809178009091C6
S11300B079000895969587959695879508958AB1C0
S11300C080648AB983E884BD82E085BD089587BDD4
S11300D008950E9440000E945F000E9447000E9411
S10F00E05A000E946700F9CFF894FFCF8B
S9030000FC
